{
  "_format": "hh-sol-artifact-1",
  "contractName": "Exchange",
  "sourceName": "contracts/Exchange.sol",
  "abi": [
    {
      "inputs": [
        {
          "internalType": "address",
          "name": "_myToken",
          "type": "address"
        }
      ],
      "stateMutability": "nonpayable",
      "type": "constructor"
    },
    {
      "anonymous": false,
      "inputs": [
        {
          "indexed": true,
          "internalType": "address",
          "name": "owner",
          "type": "address"
        },
        {
          "indexed": true,
          "internalType": "address",
          "name": "spender",
          "type": "address"
        },
        {
          "indexed": false,
          "internalType": "uint256",
          "name": "value",
          "type": "uint256"
        }
      ],
      "name": "Approval",
      "type": "event"
    },
    {
      "anonymous": false,
      "inputs": [
        {
          "indexed": true,
          "internalType": "address",
          "name": "from",
          "type": "address"
        },
        {
          "indexed": true,
          "internalType": "address",
          "name": "to",
          "type": "address"
        },
        {
          "indexed": false,
          "internalType": "uint256",
          "name": "value",
          "type": "uint256"
        }
      ],
      "name": "Transfer",
      "type": "event"
    },
    {
      "inputs": [
        {
          "internalType": "uint256",
          "name": "_amount",
          "type": "uint256"
        }
      ],
      "name": "addLiquidity",
      "outputs": [
        {
          "internalType": "uint256",
          "name": "",
          "type": "uint256"
        }
      ],
      "stateMutability": "payable",
      "type": "function"
    },
    {
      "inputs": [
        {
          "internalType": "address",
          "name": "owner",
          "type": "address"
        },
        {
          "internalType": "address",
          "name": "spender",
          "type": "address"
        }
      ],
      "name": "allowance",
      "outputs": [
        {
          "internalType": "uint256",
          "name": "",
          "type": "uint256"
        }
      ],
      "stateMutability": "view",
      "type": "function"
    },
    {
      "inputs": [
        {
          "internalType": "address",
          "name": "spender",
          "type": "address"
        },
        {
          "internalType": "uint256",
          "name": "amount",
          "type": "uint256"
        }
      ],
      "name": "approve",
      "outputs": [
        {
          "internalType": "bool",
          "name": "",
          "type": "bool"
        }
      ],
      "stateMutability": "nonpayable",
      "type": "function"
    },
    {
      "inputs": [
        {
          "internalType": "address",
          "name": "account",
          "type": "address"
        }
      ],
      "name": "balanceOf",
      "outputs": [
        {
          "internalType": "uint256",
          "name": "",
          "type": "uint256"
        }
      ],
      "stateMutability": "view",
      "type": "function"
    },
    {
      "inputs": [],
      "name": "decimals",
      "outputs": [
        {
          "internalType": "uint8",
          "name": "",
          "type": "uint8"
        }
      ],
      "stateMutability": "view",
      "type": "function"
    },
    {
      "inputs": [
        {
          "internalType": "address",
          "name": "spender",
          "type": "address"
        },
        {
          "internalType": "uint256",
          "name": "subtractedValue",
          "type": "uint256"
        }
      ],
      "name": "decreaseAllowance",
      "outputs": [
        {
          "internalType": "bool",
          "name": "",
          "type": "bool"
        }
      ],
      "stateMutability": "nonpayable",
      "type": "function"
    },
    {
      "inputs": [
        {
          "internalType": "uint256",
          "name": "_minTokens",
          "type": "uint256"
        }
      ],
      "name": "ethTomyToken",
      "outputs": [],
      "stateMutability": "payable",
      "type": "function"
    },
    {
      "inputs": [
        {
          "internalType": "uint256",
          "name": "inputAmount",
          "type": "uint256"
        },
        {
          "internalType": "uint256",
          "name": "inputReserve",
          "type": "uint256"
        },
        {
          "internalType": "uint256",
          "name": "outputReserve",
          "type": "uint256"
        }
      ],
      "name": "getAmountTokens",
      "outputs": [
        {
          "internalType": "uint256",
          "name": "",
          "type": "uint256"
        }
      ],
      "stateMutability": "pure",
      "type": "function"
    },
    {
      "inputs": [],
      "name": "getReserve",
      "outputs": [
        {
          "internalType": "uint256",
          "name": "",
          "type": "uint256"
        }
      ],
      "stateMutability": "view",
      "type": "function"
    },
    {
      "inputs": [
        {
          "internalType": "address",
          "name": "spender",
          "type": "address"
        },
        {
          "internalType": "uint256",
          "name": "addedValue",
          "type": "uint256"
        }
      ],
      "name": "increaseAllowance",
      "outputs": [
        {
          "internalType": "bool",
          "name": "",
          "type": "bool"
        }
      ],
      "stateMutability": "nonpayable",
      "type": "function"
    },
    {
      "inputs": [],
      "name": "myTokenAddress",
      "outputs": [
        {
          "internalType": "address",
          "name": "",
          "type": "address"
        }
      ],
      "stateMutability": "view",
      "type": "function"
    },
    {
      "inputs": [
        {
          "internalType": "uint256",
          "name": "_tokenSold",
          "type": "uint256"
        },
        {
          "internalType": "uint256",
          "name": "_minEth",
          "type": "uint256"
        }
      ],
      "name": "mytokenToEth",
      "outputs": [],
      "stateMutability": "nonpayable",
      "type": "function"
    },
    {
      "inputs": [],
      "name": "name",
      "outputs": [
        {
          "internalType": "string",
          "name": "",
          "type": "string"
        }
      ],
      "stateMutability": "view",
      "type": "function"
    },
    {
      "inputs": [
        {
          "internalType": "uint256",
          "name": "_amount",
          "type": "uint256"
        }
      ],
      "name": "removeLiquidity",
      "outputs": [
        {
          "internalType": "uint256",
          "name": "",
          "type": "uint256"
        },
        {
          "internalType": "uint256",
          "name": "",
          "type": "uint256"
        }
      ],
      "stateMutability": "nonpayable",
      "type": "function"
    },
    {
      "inputs": [],
      "name": "symbol",
      "outputs": [
        {
          "internalType": "string",
          "name": "",
          "type": "string"
        }
      ],
      "stateMutability": "view",
      "type": "function"
    },
    {
      "inputs": [],
      "name": "totalSupply",
      "outputs": [
        {
          "internalType": "uint256",
          "name": "",
          "type": "uint256"
        }
      ],
      "stateMutability": "view",
      "type": "function"
    },
    {
      "inputs": [
        {
          "internalType": "address",
          "name": "to",
          "type": "address"
        },
        {
          "internalType": "uint256",
          "name": "amount",
          "type": "uint256"
        }
      ],
      "name": "transfer",
      "outputs": [
        {
          "internalType": "bool",
          "name": "",
          "type": "bool"
        }
      ],
      "stateMutability": "nonpayable",
      "type": "function"
    },
    {
      "inputs": [
        {
          "internalType": "address",
          "name": "from",
          "type": "address"
        },
        {
          "internalType": "address",
          "name": "to",
          "type": "address"
        },
        {
          "internalType": "uint256",
          "name": "amount",
          "type": "uint256"
        }
      ],
      "name": "transferFrom",
      "outputs": [
        {
          "internalType": "bool",
          "name": "",
          "type": "bool"
        }
      ],
      "stateMutability": "nonpayable",
      "type": "function"
    }
  ],
  "bytecode": "0x60806040523480156200001157600080fd5b506040516200284a3803806200284a833981810160405281019062000037919062000274565b6040518060400160405280600881526020017f6e756b65544b4c500000000000000000000000000000000000000000000000008152506040518060400160405280600581526020017f4c504e544b0000000000000000000000000000000000000000000000000000008152508160039080519060200190620000bb9291906200015a565b508060049080519060200190620000d49291906200015a565b505050600073ffffffffffffffffffffffffffffffffffffffff168173ffffffffffffffffffffffffffffffffffffffff1614156200011257600080fd5b80600560006101000a81548173ffffffffffffffffffffffffffffffffffffffff021916908373ffffffffffffffffffffffffffffffffffffffff160217905550506200030b565b8280546200016890620002d5565b90600052602060002090601f0160209004810192826200018c5760008555620001d8565b82601f10620001a757805160ff1916838001178555620001d8565b82800160010185558215620001d8579182015b82811115620001d7578251825591602001919060010190620001ba565b5b509050620001e79190620001eb565b5090565b5b8082111562000206576000816000905550600101620001ec565b5090565b600080fd5b600073ffffffffffffffffffffffffffffffffffffffff82169050919050565b60006200023c826200020f565b9050919050565b6200024e816200022f565b81146200025a57600080fd5b50565b6000815190506200026e8162000243565b92915050565b6000602082840312156200028d576200028c6200020a565b5b60006200029d848285016200025d565b91505092915050565b7f4e487b7100000000000000000000000000000000000000000000000000000000600052602260045260246000fd5b60006002820490506001821680620002ee57607f821691505b60208210811415620003055762000304620002a6565b5b50919050565b61252f806200031b6000396000f3fe6080604052600436106101095760003560e01c806359bf5d39116100955780639c8f9f23116100645780639c8f9f231461038b578063a457c2d7146103c9578063a9059cbb14610406578063dd62ed3e14610443578063e6f822ab1461048057610109565b806359bf5d39146102dc57806370a0823114610307578063790262ed1461034457806395d89b411461036057610109565b806323b872dd116100dc57806323b872dd146101ca578063313ce5671461020757806339509351146102325780634a6bc6891461026f57806351c6590a146102ac57610109565b806306fdde031461010e578063095ea7b3146101395780630c0ec4c01461017657806318160ddd1461019f575b600080fd5b34801561011a57600080fd5b506101236104ab565b6040516101309190611787565b60405180910390f35b34801561014557600080fd5b50610160600480360381019061015b9190611842565b61053d565b60405161016d919061189d565b60405180910390f35b34801561018257600080fd5b5061019d600480360381019061019891906118b8565b610560565b005b3480156101ab57600080fd5b506101b46106bd565b6040516101c19190611907565b60405180910390f35b3480156101d657600080fd5b506101f160048036038101906101ec9190611922565b6106c7565b6040516101fe919061189d565b60405180910390f35b34801561021357600080fd5b5061021c6106f6565b6040516102299190611991565b60405180910390f35b34801561023e57600080fd5b5061025960048036038101906102549190611842565b6106ff565b604051610266919061189d565b60405180910390f35b34801561027b57600080fd5b50610296600480360381019061029191906119ac565b610736565b6040516102a39190611907565b60405180910390f35b6102c660048036038101906102c191906119ff565b6107db565b6040516102d39190611907565b60405180910390f35b3480156102e857600080fd5b506102f16109f8565b6040516102fe9190611907565b60405180910390f35b34801561031357600080fd5b5061032e60048036038101906103299190611a2c565b610aaa565b60405161033b9190611907565b60405180910390f35b61035e600480360381019061035991906119ff565b610af2565b005b34801561036c57600080fd5b50610375610c10565b6040516103829190611787565b60405180910390f35b34801561039757600080fd5b506103b260048036038101906103ad91906119ff565b610ca2565b6040516103c0929190611a59565b60405180910390f35b3480156103d557600080fd5b506103f060048036038101906103eb9190611842565b610da1565b6040516103fd919061189d565b60405180910390f35b34801561041257600080fd5b5061042d60048036038101906104289190611842565b610e18565b60405161043a919061189d565b60405180910390f35b34801561044f57600080fd5b5061046a60048036038101906104659190611a82565b610e3b565b6040516104779190611907565b60405180910390f35b34801561048c57600080fd5b50610495610ec2565b6040516104a29190611ad1565b60405180910390f35b6060600380546104ba90611b1b565b80601f01602080910402602001604051908101604052809291908181526020018280546104e690611b1b565b80156105335780601f1061050857610100808354040283529160200191610533565b820191906000526020600020905b81548152906001019060200180831161051657829003601f168201915b5050505050905090565b600080610548610ee8565b9050610555818585610ef0565b600191505092915050565b600061056a6109f8565b90506000610579848347610736565b9050828110156105be576040517f08c379a00000000000000000000000000000000000000000000000000000000081526004016105b590611b99565b60405180910390fd5b600560009054906101000a900473ffffffffffffffffffffffffffffffffffffffff1673ffffffffffffffffffffffffffffffffffffffff166323b872dd3330876040518463ffffffff1660e01b815260040161061d93929190611bb9565b602060405180830381600087803b15801561063757600080fd5b505af115801561064b573d6000803e3d6000fd5b505050506040513d601f19601f8201168201806040525081019061066f9190611c1c565b503373ffffffffffffffffffffffffffffffffffffffff166108fc829081150290604051600060405180830381858888f193505050501580156106b6573d6000803e3d6000fd5b5050505050565b6000600254905090565b6000806106d2610ee8565b90506106df8582856110bb565b6106ea858585611147565b60019150509392505050565b60006012905090565b60008061070a610ee8565b905061072b81858561071c8589610e3b565b6107269190611c78565b610ef0565b600191505092915050565b600080831180156107475750600082115b610786576040517f08c379a000000000000000000000000000000000000000000000000000000000815260040161077d90611d1a565b60405180910390fd5b60006063856107959190611d3a565b9050600083826107a59190611d3a565b90506000826064876107b79190611d3a565b6107c19190611c78565b905080826107cf9190611dc3565b93505050509392505050565b600080600047905060006107ed6109f8565b90506000600560009054906101000a900473ffffffffffffffffffffffffffffffffffffffff16905060008214156108c1578073ffffffffffffffffffffffffffffffffffffffff166323b872dd3330896040518463ffffffff1660e01b815260040161085c93929190611bb9565b602060405180830381600087803b15801561087657600080fd5b505af115801561088a573d6000803e3d6000fd5b505050506040513d601f19601f820116820180604052508101906108ae9190611c1c565b508293506108bc33856113bf565b6109ec565b600034846108cf9190611df4565b905060008184346108e09190611d3a565b6108ea9190611dc3565b90508088101561092f576040517f08c379a000000000000000000000000000000000000000000000000000000000815260040161092690611e9a565b60405180910390fd5b8273ffffffffffffffffffffffffffffffffffffffff166323b872dd3330846040518463ffffffff1660e01b815260040161096c93929190611bb9565b602060405180830381600087803b15801561098657600080fd5b505af115801561099a573d6000803e3d6000fd5b505050506040513d601f19601f820116820180604052508101906109be9190611c1c565b5081346109c96106bd565b6109d39190611d3a565b6109dd9190611dc3565b95506109e933876113bf565b50505b83945050505050919050565b6000600560009054906101000a900473ffffffffffffffffffffffffffffffffffffffff1673ffffffffffffffffffffffffffffffffffffffff166370a08231306040518263ffffffff1660e01b8152600401610a559190611ad1565b60206040518083038186803b158015610a6d57600080fd5b505afa158015610a81573d6000803e3d6000fd5b505050506040513d601f19601f82011682018060405250810190610aa59190611ecf565b905090565b60008060008373ffffffffffffffffffffffffffffffffffffffff1673ffffffffffffffffffffffffffffffffffffffff168152602001908152602001600020549050919050565b6000610afc6109f8565b90506000610b16343447610b109190611df4565b84610736565b905082811015610b5b576040517f08c379a0000000000000000000000000000000000000000000000000000000008152600401610b5290611b99565b60405180910390fd5b600560009054906101000a900473ffffffffffffffffffffffffffffffffffffffff1673ffffffffffffffffffffffffffffffffffffffff1663a9059cbb33836040518363ffffffff1660e01b8152600401610bb8929190611efc565b602060405180830381600087803b158015610bd257600080fd5b505af1158015610be6573d6000803e3d6000fd5b505050506040513d601f19601f82011682018060405250810190610c0a9190611c1c565b50505050565b606060048054610c1f90611b1b565b80601f0160208091040260200160405190810160405280929190818152602001828054610c4b90611b1b565b8015610c985780601f10610c6d57610100808354040283529160200191610c98565b820191906000526020600020905b815481529060010190602001808311610c7b57829003601f168201915b5050505050905090565b60008060008311610ce8576040517f08c379a0000000000000000000000000000000000000000000000000000000008152600401610cdf90611f71565b60405180910390fd5b60004790506000610cf76106bd565b90506000818387610d089190611d3a565b610d129190611dc3565b9050610d1e3387611516565b600082610d296109f8565b88610d349190611d3a565b610d3e9190611dc3565b90503373ffffffffffffffffffffffffffffffffffffffff166108fc839081150290604051600060405180830381858888f19350505050158015610d86573d6000803e3d6000fd5b50610d913382610e18565b5081819550955050505050915091565b600080610dac610ee8565b90506000610dba8286610e3b565b905083811015610dff576040517f08c379a0000000000000000000000000000000000000000000000000000000008152600401610df690612003565b60405180910390fd5b610e0c8286868403610ef0565b60019250505092915050565b600080610e23610ee8565b9050610e30818585611147565b600191505092915050565b6000600160008473ffffffffffffffffffffffffffffffffffffffff1673ffffffffffffffffffffffffffffffffffffffff16815260200190815260200160002060008373ffffffffffffffffffffffffffffffffffffffff1673ffffffffffffffffffffffffffffffffffffffff16815260200190815260200160002054905092915050565b600560009054906101000a900473ffffffffffffffffffffffffffffffffffffffff1681565b600033905090565b600073ffffffffffffffffffffffffffffffffffffffff168373ffffffffffffffffffffffffffffffffffffffff161415610f60576040517f08c379a0000000000000000000000000000000000000000000000000000000008152600401610f5790612095565b60405180910390fd5b600073ffffffffffffffffffffffffffffffffffffffff168273ffffffffffffffffffffffffffffffffffffffff161415610fd0576040517f08c379a0000000000000000000000000000000000000000000000000000000008152600401610fc790612127565b60405180910390fd5b80600160008573ffffffffffffffffffffffffffffffffffffffff1673ffffffffffffffffffffffffffffffffffffffff16815260200190815260200160002060008473ffffffffffffffffffffffffffffffffffffffff1673ffffffffffffffffffffffffffffffffffffffff168152602001908152602001600020819055508173ffffffffffffffffffffffffffffffffffffffff168373ffffffffffffffffffffffffffffffffffffffff167f8c5be1e5ebec7d5bd14f71427d1e84f3dd0314c0f7b2291e5b200ac8c7c3b925836040516110ae9190611907565b60405180910390a3505050565b60006110c78484610e3b565b90507fffffffffffffffffffffffffffffffffffffffffffffffffffffffffffffffff81146111415781811015611133576040517f08c379a000000000000000000000000000000000000000000000000000000000815260040161112a90612193565b60405180910390fd5b6111408484848403610ef0565b5b50505050565b600073ffffffffffffffffffffffffffffffffffffffff168373ffffffffffffffffffffffffffffffffffffffff1614156111b7576040517f08c379a00000000000000000000000000000000000000000000000000000000081526004016111ae90612225565b60405180910390fd5b600073ffffffffffffffffffffffffffffffffffffffff168273ffffffffffffffffffffffffffffffffffffffff161415611227576040517f08c379a000000000000000000000000000000000000000000000000000000000815260040161121e906122b7565b60405180910390fd5b6112328383836116e4565b60008060008573ffffffffffffffffffffffffffffffffffffffff1673ffffffffffffffffffffffffffffffffffffffff168152602001908152602001600020549050818110156112b8576040517f08c379a00000000000000000000000000000000000000000000000000000000081526004016112af90612349565b60405180910390fd5b8181036000808673ffffffffffffffffffffffffffffffffffffffff1673ffffffffffffffffffffffffffffffffffffffff16815260200190815260200160002081905550816000808573ffffffffffffffffffffffffffffffffffffffff1673ffffffffffffffffffffffffffffffffffffffff168152602001908152602001600020600082825401925050819055508273ffffffffffffffffffffffffffffffffffffffff168473ffffffffffffffffffffffffffffffffffffffff167fddf252ad1be2c89b69c2b068fc378daa952ba7f163c4a11628f55a4df523b3ef846040516113a69190611907565b60405180910390a36113b98484846116e9565b50505050565b600073ffffffffffffffffffffffffffffffffffffffff168273ffffffffffffffffffffffffffffffffffffffff16141561142f576040517f08c379a0000000000000000000000000000000000000000000000000000000008152600401611426906123b5565b60405180910390fd5b61143b600083836116e4565b806002600082825461144d9190611c78565b92505081905550806000808473ffffffffffffffffffffffffffffffffffffffff1673ffffffffffffffffffffffffffffffffffffffff168152602001908152602001600020600082825401925050819055508173ffffffffffffffffffffffffffffffffffffffff16600073ffffffffffffffffffffffffffffffffffffffff167fddf252ad1be2c89b69c2b068fc378daa952ba7f163c4a11628f55a4df523b3ef836040516114fe9190611907565b60405180910390a3611512600083836116e9565b5050565b600073ffffffffffffffffffffffffffffffffffffffff168273ffffffffffffffffffffffffffffffffffffffff161415611586576040517f08c379a000000000000000000000000000000000000000000000000000000000815260040161157d90612447565b60405180910390fd5b611592826000836116e4565b60008060008473ffffffffffffffffffffffffffffffffffffffff1673ffffffffffffffffffffffffffffffffffffffff16815260200190815260200160002054905081811015611618576040517f08c379a000000000000000000000000000000000000000000000000000000000815260040161160f906124d9565b60405180910390fd5b8181036000808573ffffffffffffffffffffffffffffffffffffffff1673ffffffffffffffffffffffffffffffffffffffff1681526020019081526020016000208190555081600260008282540392505081905550600073ffffffffffffffffffffffffffffffffffffffff168373ffffffffffffffffffffffffffffffffffffffff167fddf252ad1be2c89b69c2b068fc378daa952ba7f163c4a11628f55a4df523b3ef846040516116cb9190611907565b60405180910390a36116df836000846116e9565b505050565b505050565b505050565b600081519050919050565b600082825260208201905092915050565b60005b8381101561172857808201518184015260208101905061170d565b83811115611737576000848401525b50505050565b6000601f19601f8301169050919050565b6000611759826116ee565b61176381856116f9565b935061177381856020860161170a565b61177c8161173d565b840191505092915050565b600060208201905081810360008301526117a1818461174e565b905092915050565b600080fd5b600073ffffffffffffffffffffffffffffffffffffffff82169050919050565b60006117d9826117ae565b9050919050565b6117e9816117ce565b81146117f457600080fd5b50565b600081359050611806816117e0565b92915050565b6000819050919050565b61181f8161180c565b811461182a57600080fd5b50565b60008135905061183c81611816565b92915050565b60008060408385031215611859576118586117a9565b5b6000611867858286016117f7565b92505060206118788582860161182d565b9150509250929050565b60008115159050919050565b61189781611882565b82525050565b60006020820190506118b2600083018461188e565b92915050565b600080604083850312156118cf576118ce6117a9565b5b60006118dd8582860161182d565b92505060206118ee8582860161182d565b9150509250929050565b6119018161180c565b82525050565b600060208201905061191c60008301846118f8565b92915050565b60008060006060848603121561193b5761193a6117a9565b5b6000611949868287016117f7565b935050602061195a868287016117f7565b925050604061196b8682870161182d565b9150509250925092565b600060ff82169050919050565b61198b81611975565b82525050565b60006020820190506119a66000830184611982565b92915050565b6000806000606084860312156119c5576119c46117a9565b5b60006119d38682870161182d565b93505060206119e48682870161182d565b92505060406119f58682870161182d565b9150509250925092565b600060208284031215611a1557611a146117a9565b5b6000611a238482850161182d565b91505092915050565b600060208284031215611a4257611a416117a9565b5b6000611a50848285016117f7565b91505092915050565b6000604082019050611a6e60008301856118f8565b611a7b60208301846118f8565b9392505050565b60008060408385031215611a9957611a986117a9565b5b6000611aa7858286016117f7565b9250506020611ab8858286016117f7565b9150509250929050565b611acb816117ce565b82525050565b6000602082019050611ae66000830184611ac2565b92915050565b7f4e487b7100000000000000000000000000000000000000000000000000000000600052602260045260246000fd5b60006002820490506001821680611b3357607f821691505b60208210811415611b4757611b46611aec565b5b50919050565b7f696e73756666696369656e74206f757470757420616d6f756e74000000000000600082015250565b6000611b83601a836116f9565b9150611b8e82611b4d565b602082019050919050565b60006020820190508181036000830152611bb281611b76565b9050919050565b6000606082019050611bce6000830186611ac2565b611bdb6020830185611ac2565b611be860408301846118f8565b949350505050565b611bf981611882565b8114611c0457600080fd5b50565b600081519050611c1681611bf0565b92915050565b600060208284031215611c3257611c316117a9565b5b6000611c4084828501611c07565b91505092915050565b7f4e487b7100000000000000000000000000000000000000000000000000000000600052601160045260246000fd5b6000611c838261180c565b9150611c8e8361180c565b9250827fffffffffffffffffffffffffffffffffffffffffffffffffffffffffffffffff03821115611cc357611cc2611c49565b5b828201905092915050565b7f56616c756573206c657373207468616e207a65726f0000000000000000000000600082015250565b6000611d046015836116f9565b9150611d0f82611cce565b602082019050919050565b60006020820190508181036000830152611d3381611cf7565b9050919050565b6000611d458261180c565b9150611d508361180c565b9250817fffffffffffffffffffffffffffffffffffffffffffffffffffffffffffffffff0483118215151615611d8957611d88611c49565b5b828202905092915050565b7f4e487b7100000000000000000000000000000000000000000000000000000000600052601260045260246000fd5b6000611dce8261180c565b9150611dd98361180c565b925082611de957611de8611d94565b5b828204905092915050565b6000611dff8261180c565b9150611e0a8361180c565b925082821015611e1d57611e1c611c49565b5b828203905092915050565b7f456e74657265642056616c7565206973206c657373207468616e206d696e696d60008201527f756d20746f6b656e207265717569726564000000000000000000000000000000602082015250565b6000611e846031836116f9565b9150611e8f82611e28565b604082019050919050565b60006020820190508181036000830152611eb381611e77565b9050919050565b600081519050611ec981611816565b92915050565b600060208284031215611ee557611ee46117a9565b5b6000611ef384828501611eba565b91505092915050565b6000604082019050611f116000830185611ac2565b611f1e60208301846118f8565b9392505050565b7f416d6f756e74206d7573742062652067726561746572207468616e205a65726f600082015250565b6000611f5b6020836116f9565b9150611f6682611f25565b602082019050919050565b60006020820190508181036000830152611f8a81611f4e565b9050919050565b7f45524332303a2064656372656173656420616c6c6f77616e63652062656c6f7760008201527f207a65726f000000000000000000000000000000000000000000000000000000602082015250565b6000611fed6025836116f9565b9150611ff882611f91565b604082019050919050565b6000602082019050818103600083015261201c81611fe0565b9050919050565b7f45524332303a20617070726f76652066726f6d20746865207a65726f2061646460008201527f7265737300000000000000000000000000000000000000000000000000000000602082015250565b600061207f6024836116f9565b915061208a82612023565b604082019050919050565b600060208201905081810360008301526120ae81612072565b9050919050565b7f45524332303a20617070726f766520746f20746865207a65726f20616464726560008201527f7373000000000000000000000000000000000000000000000000000000000000602082015250565b60006121116022836116f9565b915061211c826120b5565b604082019050919050565b6000602082019050818103600083015261214081612104565b9050919050565b7f45524332303a20696e73756666696369656e7420616c6c6f77616e6365000000600082015250565b600061217d601d836116f9565b915061218882612147565b602082019050919050565b600060208201905081810360008301526121ac81612170565b9050919050565b7f45524332303a207472616e736665722066726f6d20746865207a65726f20616460008201527f6472657373000000000000000000000000000000000000000000000000000000602082015250565b600061220f6025836116f9565b915061221a826121b3565b604082019050919050565b6000602082019050818103600083015261223e81612202565b9050919050565b7f45524332303a207472616e7366657220746f20746865207a65726f206164647260008201527f6573730000000000000000000000000000000000000000000000000000000000602082015250565b60006122a16023836116f9565b91506122ac82612245565b604082019050919050565b600060208201905081810360008301526122d081612294565b9050919050565b7f45524332303a207472616e7366657220616d6f756e742065786365656473206260008201527f616c616e63650000000000000000000000000000000000000000000000000000602082015250565b60006123336026836116f9565b915061233e826122d7565b604082019050919050565b6000602082019050818103600083015261236281612326565b9050919050565b7f45524332303a206d696e7420746f20746865207a65726f206164647265737300600082015250565b600061239f601f836116f9565b91506123aa82612369565b602082019050919050565b600060208201905081810360008301526123ce81612392565b9050919050565b7f45524332303a206275726e2066726f6d20746865207a65726f2061646472657360008201527f7300000000000000000000000000000000000000000000000000000000000000602082015250565b60006124316021836116f9565b915061243c826123d5565b604082019050919050565b6000602082019050818103600083015261246081612424565b9050919050565b7f45524332303a206275726e20616d6f756e7420657863656564732062616c616e60008201527f6365000000000000000000000000000000000000000000000000000000000000602082015250565b60006124c36022836116f9565b91506124ce82612467565b604082019050919050565b600060208201905081810360008301526124f2816124b6565b905091905056fea2646970667358221220456a09bba01fb47f908a9c3404af7b77f3ff158c026a26583f10c34a4796cc9a64736f6c63430008090033",
  "linkReferences": {},
  "deployedLinkReferences": {}
}